:020000040800F2
:1000000000A00020292B0008712B0008712B00088C
:10001000712B0008712B0008712B000800000000F4
:10002000000000000000000000000000712B00082C
:10003000712B000800000000712B0008712B0008D4
:1000400000000000000000000000000000000000B0
:1000500000000000000000000000000000000000A0
:100060000000000000000000000000000000000090
:100070000000000000000000000000000000000080
:100080000000000000000000000000000000000070
:100090000000000000000000000000000000000060
:1000A0000000000000000000000000000000000050
:1000B0000000000000000000000000000000000040
:1000C0000000000000000000000000000000000030
:1000D0000000000000000000000000000000000020
:1000E0000000000000000000000000000000000010
:1000F0000000000000000000000000000000000000
:1001000000000000000000000000000000000000EF
:1001100000000000000000000000000000000000DF
:1001200000000000000000000000000000000000CF
:1001300000000000000000000000000000000000BF
:1001400000000000000000000000000000000000AF
:10015000000000000000000000000000000000009F
:10016000000000000000000000000000000000008F
:10017000000000000000000000000000000000007F
:08018000000000000000000077
:100188000348044B834202D0034B03B1184770471E
:10019800000000200000002000000000054806497B
:1001A8000B1AD90F01EBA301491002D0034B03B17D
:1001B80018477047000000200000002000000000E1
:1001C80010B5064C237843B9FFF7DAFF044B13B197
:1001D8000448AFF300800123237010BD0000002005
:1001E80000000000742B000808B5044B1BB104493B
:1001F8000448AFF30080BDE80840CFE700000000E6
:1002080004000020742B000870B50D4E0D4D761BB0
:10021800B61006D0002455F8043B01349847A6428E
:10022800F9D1094E094D761B02F0A0FCB61006D094
:10023800002455F8043B01349847A642F9D170BD13
:10024800C02C0008C02C0008C42C0008C02C0008D2
:10025800830730B548D0541E002A3FD0CAB203469F
:1002680001E0013C3AD303F8012B9D07F9D1032C97
:100278002DD9CDB245EA05250F2C45EA054536D9D5
:10028800A4F1100222F00F0C03F1200EE6444FEA0D
:10029800121C03F1100242E9045542E902551032DA
:1002A8007245F8D10CF1010214F00C0F03EB0212A5
:1002B80004F00F0C13D0ACF1040323F00303043350
:1002C800134442F8045B9342FBD10CF003042CB1B5
:1002D800CAB21C4403F8012B9C42FBD130BD6446D2
:1002E8001346002CF4D1F9E703461446BFE71A4633
:1002F800A446E0E710B5013A52B2130601D5002032
:1003080010BD50F8224051F822309C4205D802F125
:10031800FF32F2D24FF0FF30F2E70120F0E70000A1
:10032800C278037903EB0223827803EB0243427815
:1003380003EB0263027812B92E4A136003E0012A24
:1003480003D12C4A136200207047022A02D1294A9D
:100358001363F8E7032A09D1274A116841F4806139
:1003680011601360136823F48063E6E7042A07D159
:10037800214A116841F480611160C2F8F031F1E757
:10038800052A06D11C4A116841F480611160136284
:10039800E8E7062A06D1184A116841F4806111601D
:1003A8005362DFE7072A07D1134A116841F48061D5
:1003B8001160C2F80032D5E7082A02D10F4A13614A
:1003C800C1E7092A03D10D4AC2F8F030BBE70A2A6F
:1003D80003D10A4AC2F80433B5E70B2A02D1074A07
:1003E8005360B0E70C2A04BF4FF06042C2F8803E69
:1003F800A9E700BF001000E0001004E0000004E0DE
:1004080000230B4AF0B51F4642F80479C618182194
:1004180016F8014B04FA01F5546808392C4311F118
:10042800080F5460F4D10433202BEDD10020F0BD27
:100438003800002000230B4AF0B51F4642F8047923
:10044800C618182116F8014B04FA01F55468083942
:100458002C4311F1080F5460F4D10433202BEDD153
:100468000020F0BD580000200020704708B50A465B
:100478002A21FFF7EDFE012008BD000008B503782A
:10048800024613B9274B1B6808E0012B02D1254B04
:100498001B6A03E0022B0ED1224B1B6BD370190A87
:1004A8009170190C1B0E517013700421722001F009
:1004B80073FB002008BD032B01D11B4BE3E7042B82
:1004C80003D1194BD3F8F031E8E7052B01D1164BCE
:1004D800DEE7062B02D1144B5B6ADFE7072B03D15B
:1004E800114BD3F80032D9E7082B02D10F4B1B6907
:1004F800D4E7092B03D10D4BD3F8F030CEE70A2B04
:1005080003D10A4BD3F80433C8E70B2B02D1074BAE
:100518005B68C3E70C2B0ABF4FF060430023D3F896
:10052800803EBBE7001000E0001004E0000004E09B
:1005380038B50378114903F0010381F84030437856
:10054800817803F00104C37801F00F01490103F039
:100558000F0341EA430343EA4423024643F480631A
:100568000748002543F0010305600160036004218A
:10057800722001F011FB284638BD00BF1C00002086
:10058800001000E038B502460A4800215518182323
:10059800C469DC40083B13F1080F05F8014BF7D19B
:1005A80004312029A0F10400F0D1722001F0F4FAFE
:1005B800002038BD6000002038B502460A480021F6
:1005C80055181823C46BDC40083B13F1080F05F8D5
:1005D800014BF7D104312029A0F10400F0D1722099
:1005E80001F0DAFA002038BD6000002073B500245D
:1005F800254644F6F57684F00104204601F064FCB3
:100608000195019BB342F6D8019B01330193F8E7AA
:1006180030B50346002010C920CA641910C310C998
:1006280020CA6C4110C310C920CA6C4110C310C93C
:1006380020CA6C4110C310C920CA6C4110C310C92C
:1006480020CA6C4110C310C920CA6C4110C310C91C
:1006580020CA6C4110C3404130BD30B5002310C9D9
:1006680020CA641B10C010C920CAAC4110C010C9F0
:1006780020CAAC4110C010C920CAAC4110C010C972
:1006880020CAAC4110C010C920CAAC4110C010C962
:1006980020CAAC4110C010C920CAAC4110C05B418F
:1006A800B3FA83F0400930BD082B2DE9F04F40F034
:1006B8000281F0CA51F804EBA4FB0E8940F8048BC0
:1006C8004FF0000AE5FB6E9A4FF0000BE6FB6EABAD
:1006D8004FF0000CE7FB6EBC51F804EB4FF000083C
:1006E800E4FB6E8940F8048BE5FB6E9AE6FB6EAB83
:1006F800E7FB6EBC51F804EB4FF00008E4FB6E8991
:1007080040F8048BE5FB6E9AE6FB6EABE7FB6EBC2C
:1007180051F804EB4FF00008E4FB6E8940F8048BB5
:10072800E5FB6E9AE6FB6EABE7FB6EBC51F804EB9B
:100738004FF00008E4FB6E8940F8048BE5FB6E9AE5
:10074800E6FB6EABE7FB6EBC51F804EB4FF000081C
:10075800E4FB6E8940F8048BE5FB6E9AE6FB6EAB12
:10076800E7FB6EBC51F804EB4FF00008E4FB6E8920
:1007780040F8048BE5FB6E9AE6FB6EABE7FB6EBCBC
:1007880051F804EB4FF00008E4FB6E8940F8048B45
:10079800E5FB6E9AE6FB6EABE7FB6EBC40F8049B8C
:1007A80040F804AB40F804BB40F804CBA0F12000AB
:1007B800A1F12001F0CA51F804EBD0F800804FF005
:1007C8000009E4FB6E8940F8048B4FF0000AE5FB52
:1007D8006E9A4FF0000BE6FB6EAB4FF0000CE7FB98
:1007E8006EBC51F804EBD0F80080E4FB6E8940F849
:1007F800048BE5FB6E9AE6FB6EABE7FB6EBC51F82B
:1008080004EBD0F80080E4FB6E8940F8048BE5FB2C
:100818006E9AE6FB6EABE7FB6EBC51F804EBD0F8C2
:100828000080E4FB6E8940F8048BE5FB6E9AE6FBDA
:100838006EABE7FB6EBC51F804EBD0F80080E4FB2C
:100848006E8940F8048BE5FB6E9AE6FB6EABE7FB1E
:100858006EBC51F804EBD0F80080E4FB6E8940F8D8
:10086800048BE5FB6E9AE6FB6EABE7FB6EBC51F8BA
:1008780004EBD0F80080E4FB6E8940F8048BE5FBBC
:100888006E9AE6FB6EABE7FB6EBC51F804EBD0F852
:100898000080E4FB6E8940F8048BE5FB6E9AE6FB6A
:1008A8006EABE7FB6EBC40F8049B40F804AB40F825
:1008B80004BB40F804CBBDE8F08F21EAE172920056
:1008C8000021FFF7C5BC10B500231A465CB2A1424F
:1008D80003DCB2FA82F0400910BD50F8234001331E
:1008E8002243F3E74A11012350F8220001F01F01C7
:1008F80003FA01F1084070472DE9F843B3F9029073
:1009080019F11F081D4648BF09F13E080E4648F375
:10091800471824350146174643462A463046FFF70E
:1009280077FE044690B9B9EB481F06DA49463046C7
:10093800FFF7D8FF041E18BF012443462A46314654
:100948003846FFF765FE2046BDE8F8830124F4E742
:10095800013910B5024649B2041D0806CBB204D4C9
:10096800013954F821000028F7D0013358B250B1AA
:1009780000F18043013B52F82320002322B90138BB
:1009880003EB401000B210BD52080133F6E710B572
:1009980000235CB2A24200DC10BD51F8234040F8AD
:1009A80023400133F5E70000F0B5082289B0FFF7CE
:1009B800EEFFCB6A03930B6B04934B6B05938B6B26
:1009C8000693CB6B07930C460646002713466946E9
:1009D8006A466846CDE901770097FFF719FE0823B4
:1009E80005466A4631463046FFF712FE236B0393ED
:1009F800636B0493A36B0593E36B0544CDE906375A
:100A08006A46082369466846FFF702FE082305443C
:100A18006A4631463046FFF7FBFD236A0093636A56
:100A28000193A36A0293A36B0693E36B07930544B0
:100A380008236A4631463046CDE904770397FFF725
:100A4800E7FD636A0093A36AA26B0193E36A0293CA
:100A58000492636BE26B0393CDE90523236A079342
:100A6800054408236A4631463046FFF7D1FDE36A5C
:100A78000093236B0193636B0293236A0693A36A23
:100A88000793054408236A4631463046CDE9047782
:100A98000397FFF7E2FD236B0093636B0193A36B4E
:100AA8000293E36B0393636A0693E36A07932D1A31
:100AB80008236A4631463046CDE90477FFF7CDFD75
:100AC800636B0093A36B0193E36B0293236A039315
:100AD800636A0493A36ACDE90537236B07932D1A3C
:100AE80008236A4631463046FFF7B7FDA36B0093EB
:100AF800E36BCDE90137636A0393A36A0493E36A5E
:100B0800CDE90537636B07932D1A08236A463146EA
:100B18003046FFF7A2FD2D1A0D4C0FD435B9082227
:100B280031462046FFF7E6FB01280FD0082322466E
:100B380031463046FFF791FD2D1AEFE7082322468C
:100B480031463046FFF764FD2D18F7D409B0F0BDE3
:100B5800902B000830B5013A52B20023140603D591
:100B6800B3FA83F0400930BD50F8224051F82250C2
:100B78006C402343013AF1E730B589B01346154676
:100B88000A4601466846FFF768FD29460446684656
:100B9800FFF799FE003C18BF01246400002814BF29
:100BA8006042C4F1010009B030BD00EB81010023AF
:100BB800884200D3704751F8042D43EA52030B6072
:100BC800D307F5E7036870B513F001060546144628
:100BD80005D013460A460146FFF71AFD0646214688
:100BE8002846FFF7E2FF46B104F18042013A55F882
:100BF800223043F0004345F8223070BD70B59DF9AE
:100C080010601D4633460446FFF702FD30B93246F0
:100C180021462846FFF76EFB012807D033462A46AF
:100C280021462046BDE87040FFF717BD70BD70B57E
:100C38009DF910601D4633460446FFF70EFD38B196
:100C480033462A4621462046BDE87040FFF7E0BCFF
:100C580070BD2DE9F04FA5B01D4614ABCDE90231AA
:100C68008046294610461746FFF772FEC0EB8514EA
:100C780024B2002C2646B8BF04F11F06634246F38F
:100C8800471603F01F0304F01F09314658BFC3F18C
:100C9800000904A8FFF711FEB9F1000F36B22BDDE9
:100CA80004AB002203EB8606C9F1200C13469D42D3
:100CB80017D86B00019304AB03EB85096F1E24ABB7
:100CC800012603EB8707002C54DA24AB03EB8606D6
:100CD8002A4656F8881C4046FFF759FE25B0BDE85D
:100CE800F08F57F8230000FA09F10A4346F8042B5D
:100CF800013320FA0CF2DAE704AB2A46394603EB53
:100D08008600FFF744FED4E70FFA82FE5AF8883CC3
:100D180053F82EB024AB03EB8202013052F8803C2A
:100D28000B44BBEB030334BF012200229B4518BFD1
:100D380011465CF8882C42F82E30019B42B29A4248
:100D4800E2DB731A5E42294604A85E41FFF72DFFD5
:100D580024AB03EB8503294653F8802C57F8803CD5
:100D680043EAC27347F8803C4846013CFFF71DFF41
:100D780024B2A8E724AB0020C6F1010C014603EB1E
:100D8800860A03EB8C0CD8E730B591B004461D46B3
:100D980068469DF95030FFF787FC2A466946204689
:100DA800FFF757FF11B030BD30B51C4691B005466E
:100DB80093F900306846FFF777FCD4F8B0306946FD
:100DC8002846984711B030BD13460A46FFF7ECBFD6
:100DD8002DE9F04115468AB004460E461C22002132
:100DE80003A8FFF735FA2F1D95F9008003232A463B
:100DF800314620460293FFF7E7FF3B4602AA214609
:100E08002046CDF80080FFF712FF2B4632462146D8
:100E18002046FFF7C9FFCDF800803B4605F1840264
:100E280021462046FFF7EAFE0AB0BDE8F081F0B59A
:100E380091B00D461C220021064601A8FFF708FACA
:100E480001241C22002109A80094FFF701FA294671
:100E58006A4611F9047B08943B466846FFF7D8FBBD
:100E680039466846FFF774FD441E24B2012C06DC9F
:100E78003A4608A93046FFF78AFD11B0F0BD08A927
:100E880008462A46FFF7A0FF21466846FFF72AFDD5
:100E980028B108A92B4632460846FFF785FF013CD2
:100EA800E3E72DE9F04793F9006092B004468946DC
:100EB8001046314615461F46FFF705FD002840F04D
:100EC80091803A46494602A8FFF77EFF3B4602AAB0
:100ED80021460AA8FFF768FF02A908463A46FFF725
:100EE80073FF3B462A4649464846FFF75DFF07F130
:100EF80004083A4629462846FFF766FF43462A462D
:100F0800214620460096FFF779FE43462A462946A1
:100F180028460096FFF772FE43462A462146284691
:100F28000096FFF784FE3B462A4621462046FFF7F7
:100F38003BFF43462246214628460096FFF75EFEC1
:100F4800434600962A4621462046FFF757FE236867
:100F5800DB074AD53346424621462046FFF758FB71
:100F6800314682462046FFF720FE06F18043013BCA
:100F780054F8232042EACA7244F823203A4621460C
:100F88002846FFF721FF43460AAA29462846009625
:100F9800FFF74DFE43460AAA294628460096FFF762
:100FA80046FE0AA9084643462A460096FFF73FFE32
:100FB8003B460AAA21462046FFF7F6FE02AA434608
:100FC800104621460096FFF732FE32462946204653
:100FD800FFF7DDFC49462846FFF7D9FC02A9484639
:100FE800FFF7D5FC12B0BDE8F08731462046FFF781
:100FF800DCFDC3E7F0B50F46A1B0064619463846F2
:1010080015461C46FFF75FFC28B1304621B0BDE805
:10101800F040FFF752BC224639466846FFF7B7FC56
:10102800294608A8FFF7B3FC214610A8FFF745FC9E
:101038000123214618A81093FFF73FFC224608A970
:101048006846FFF757F930B9224610A93046FFF72E
:101058009EFC21B0F0BD009BDA0709D42146684602
:10106800FFF7A3FD2246294610A8FFF7ABFDE5E7E9
:10107800089BDB0707D4214608A8FFF796FD224600
:10108800294618A8F1E7002823461CDD08AA694666
:101098006846FFF7E2FA21466846FFF786FD2246D2
:1010A80018A910A8FFF726F9002805DA10A9234681
:1010B8002A460846FFF7ACFA10A9234618AA08469C
:1010C800FFF7CBFACEE76A4608A8FFF7C6FA21462B
:1010D80008A8FFF76AFD224610A918A8FFF70AF921
:1010E800002805DA18A923462A460846FFF790FA89
:1010F80018A9234610AA0846FFF7AFFABFE7000071
:10110800F0B592F900700D467900ABB0064649B2C9
:1011180028461446FFF7D7FB38B10A463046294619
:101128002BB0BDE8F040FFF732BC3A46294602A88A
:10113800FFF72DFC94F900100AA80A4605EB810177
:10114800FFF725FC94F90010FFF7BDFB30B10A4604
:1011580030460AA9FFF71BFC2BB0F0BD25462246F6
:1011680002A912A8FFF730FE15F9043B009312AA52
:101178002B4611461AA8FFF741FD94F90030009359
:1011880012A92B461AAA0846FFF738FD94F9003031
:10119800009312A92B460846254AFFF72FFD94F91C
:1011A800003000930AAA2B46114622A8FFF726FD15
:1011B80022A994F900302A460846FFF71BFF12A916
:1011C800234622AA0846FFF7EFFD224612A91AA8CD
:1011D800FFF7FAFD94F9003000931AA92B4602AAEA
:1011E8000846FFF724FD94F90030009302AA2B4625
:1011F8001AA93046FFF71BFD94F9003000933246D8
:101208002B4602A922A8FFF712FD234622AA12A9FB
:101218001AA8FFF7C9FD94F90030009318460AAAE6
:101228002B461AA906EB8000FFF701FD94E700BFE3
:10123800402C00082DE9F04FCBB03AAD81469246DC
:10124800284610221E46549C8846FFF7A0FB00F053
:1012580003FE023E36B2002E09DA00F004FE102228
:1012680029464846FFF793FB4BB0BDE8F08F294667
:1012780028462246FFF744FF31465046FFF732FB27
:1012880070B194F900B04FEA4B077FB2394628464F
:10129800FFF719FB30B13A4641462846FFF777FB7E
:1012A800013ED7E74046FFF70EFB3A4608B129460C
:1012B800F3E741462846FFF74DFC28B12246294668
:1012C8002846FFF71DFFEBE75A46294602A8FFF715
:1012D8005EFB94F900100AA80A4605EB8101FFF7A6
:1012E80056FB94F90020414612A8FFF750FB94F9E9
:1012F800001027461AA80A4608EB8101FFF747FBAA
:1013080017F9043B00930AAA3B46014622A8FFF7B7
:101318008EFC94F90030009302AA3B4612A92AA831
:10132800FFF785FC94F900303A462AA932A8FFF75E
:1013380061FE22A9234632AA0846FFF735FD224658
:1013480022A92AA8FFF740FD94F9003000932AA9A2
:101358003B4602AA0846FFF76AFC94F9003000935E
:1013680012AA3B462AA92846FFF761FC94F90030E7
:1013780000932A463B4602A932A8FFF758FC2346A9
:1013880032AA22A92AA8FFF70FFD94F9003000938A
:1013980018460AAA3B462AA905EB8000FFF747FC36
:1013A8007EE730B5144695B005460CAA2346084694
:1013B80004A902910392FFF79FFAB0FA80F26388BA
:1013C800009414A9520901EB8202013352F8482C07
:1013D8001BB204F144012846FFF72CFF217849008D
:1013E80049B22846FFF76FFAB0FA80F0400915B005
:1013F80030BDF0B500254F1E6CB28C4205F10105D9
:1014080000DBF0BD3B1B23F0030603F003039659F2
:10141800DB0026FA03F30355EEE7F8B50E46D11CB8
:1014280048BF911D144641F387010546671EFFF723
:1014380044FA002042B2A24200F1010000DBF8BDEC
:10144800BB1A23F00301B25C03F00303DB0002FACA
:1014580003F36A581A436A50ECE72DE9F0479846B7
:10146800B3F9023013F11F0448BF03F13E04DD1D38
:1014780048BF03F10E056611EC10944275B228BFFF
:101488001446074689462946FFF717FA2246494671
:101498003846FFF7C2FFB8F90230B3EBC40F4FEA82
:1014A800C40220D2D21A07EB86040021C2F120061A
:1014B800A7420FD308F124082A4639464046FEF7CA
:1014C80019FF01280FD02B4642463846BDE8F047A1
:1014D800FFF7C3B854F8040D20FA02F30B43236056
:1014E80000FA06F1E4E7BDE8F08700002DE9F84FBF
:1014F8000F46DFF86CA00646114638461446FFF73B
:1015080027FADAF8843003B30425C0EB441014FB3F
:1015180005FB00B205FB04654FF0FF38043D28FACF
:1015280000F84FF04009DAF88430594630469847B9
:1015380058B12B6803EA08032B6021463046FFF7B1
:10154800C2F920B1B9F10109EDD1002006E0224627
:1015580031463846FFF710FB0128F3D1BDE8F88F74
:101568001C0000202DE9F04FA9B01D46339E0592BE
:1015780096F900B0CDE903010DF1200910AB5946E9
:101588002846CDF818900793FFF79DF918B1002069
:1015980029B0BDE8F08FB6F9028018F11F0448BFE2
:1015A80008F13E0444F3471406F12407224629466D
:1015B8003846FFF7E1FA01288246E8D1334610AAF7
:1015C80049462846FFF798F9B0FA80F028AA40095A
:1015D80002EB8000009608F1010350F8882C06F110
:1015E800440118A81BB2FFF725FE594618A8FFF7B3
:1015F8006AF90028CBD1374BD3F88430002B61D15E
:1016080021464846FFF759F9CDF820A03B4608AADD
:10161800294628460094FFF7B7FB23463A46294651
:101628002846FFF7E7FC3B4608AA294628460094C7
:10163800FFF7AAFB96F90110329818AAFFF7D9FE0E
:10164800B6F902300399DA1D48BF03F10E02D21031
:1016580008A8FFF7E2FE28AA631E02EB8303002214
:1016680010A843F8602C18A95A46FFF790F90246CB
:101678003B4608A90094FFF787FBDDE904123346CF
:1016880008A8FFF7EAFE10AA10463B4608A90094EE
:10169800FFF7B4FA10A908463B462A460094FFF71C
:1016A80073FB214610A8FFF753F996F90110B0EB28
:1016B800C10F3FF76CAF329B10AA5818FFF799FE7D
:1016C800012065E7224639464846FFF70FFF002804
:1016D8009CD15CE71C00002070B5B2F902301446BA
:1016E800DA1D48BF03F10E0298B0D2100E4601462B
:1016F8006846FFF792FEB4F9023013F11F0248BFA3
:1017080003F13E0242F347116846FFF7DCF810B1D7
:10171800002018B070BD0A4604F124006946FFF79E
:101728002BFA01280546F3D12246694608A8FFF797
:1017380038FE0028ECD094F9011008AA3046FFF7CB
:1017480058FE94F9011094F9002008AB701803EBC7
:101758008202FFF74EFE2846DBE7000000B520298D
:1017680091B001D0FEF742FF0C4A431E1F3013F818
:10177800011F02F8011B8342F9D1094A074869464B
:10178800FFF7AAFF0028EDD06A464021722000F03A
:1017980003FA002011B05DF804FB00BFA40000208C
:1017A8008C2B00082DE9F0478AB00546DDF84890F3
:1017B8000E4617469846402409F1240AB9F9023022
:1017C80013F11F0248BF03F13E0242F3471251468C
:1017D80002A8FFF78BFE50B1CDE9008902AB3A466B
:1017E80031462846FFF7BEFE28B9013CE6D1002065
:1017F8000AB0BDE8F0870120FAE7000000B593B011
:10180800094B00930A4602AB01460848FFF7CAFF96
:1018180008B9FEF7EBFE02AA4021722000F0BCF9DD
:10182800002013B05DF804FB8C2B0008A4000020F6
:1018380070B594B005460E46104604A90CAA1C467D
:1018480002910392FFF758F8B0FA80F26388009487
:1018580014A9520901EB8202013352F8482C1BB239
:1018680031462846FFF7E6FC14B070BD70B588B065
:101878000446202200216846FEF7EAFC07AD002353
:10188800E6181822002116F8010B9040083A12F1C8
:10189800080F41EA0001F6D10433202B45F804195A
:1018A800EED1054B05486A4603F14401FFF7C0FF36
:1018B800002008B070BD00BF8C2B0008600000201D
:1018C8002A4A536843F0200310B55360284A294C2C
:1018D800D2F8FC3043F08073C2F8FC30264B00226B
:1018E80002211A610820C3F8F0104FF48171C3F87F
:1018F800041358604FF060432049C3F8B04FC3F851
:10190800801E4FF0FF31C3F8001EC3F8402E03F5C8
:1019180080534FF4F0711960196841F4C26141F0C5
:10192800010119604FF4EB51196241F668515A628E
:10193800986219635A63986303F58023C3F8B04F1C
:10194800196841F4806119604FF400611960012140
:10195800C3F800120A49DA6219620F21C3F8F011BC
:101968005A621A6822F480621A6010BD002004E0EE
:1019780000ED00E055CEACC5000004E00900010010
:10198800A050010008B5FFF79BFF002008BD10B567
:10199800441E14F8010F00B910BD00F085FAF8E7ED
:1019A80008B50848FFF7F3FF0748FFF7F0FF0748B7
:1019B800FFF7EDFF0648FFF7EAFF0648FFF7E7FFE6
:1019C800002008BD732C0008A32C0008AF2C0008C9
:1019D800B22C0008BB2C000808B500F09BF900F0F9
:1019E800D9F900F015FA264B264AC3F8842000F0EE
:1019F800BDF8254A2021662000F0B4F8234A2021AA
:101A0800612000F0AFF8224A2021622000F0AAF8F5
:101A1800204A2021702000F0A5F81F4A20217120BB
:101A280000F0A0F81D4A0021782000F09BF81C4A1D
:101A38000021692000F096F81A4A0021652000F07C
:101A480091F8194A0521732000F08CF8174A0521EE
:101A5800672000F087F8164A0421632000F082F816
:101A6800144A20216B2000F07DF8134A40217A2087
:101A780000F078F8FFF724FF00F0E8F8FCE700BF73
:101A88001C000020750400087518000809040008E7
:101A98003D0400088D050008C10500087104000810
:101AA800A91900088D1900082903000885040008F1
:101AB8003905000865170008051800080120704757
:101AC800F0B500254F1C854201DB002021E017F806
:101AD800154011F81530A4F13006F6B2092E0CD8CD
:101AE8001670A3F13004E6B2092E15D8137843EA2C
:101AF8000413137001350132E5E7A4F14106052E00
:101B080002D8373C1470ECE7A4F16106052E01D920
:101B18000120F0BD573CF5E7A3F14104052C02D89C
:101B2800A3F13704E2E7A3F16104052CF0D8147897
:101B3800573B44EA0313DCE770B5094E34680F2CB1
:101B48000BDCFF2909D806EB0415C5E9021201349C
:101B580028712B743460002070BD0120FCE700BFA1
:101B6800C40000200023FFF7E7BF000008B5074ABC
:101B780000217620FFF7F6FF054A7720FFF7F2FFEE
:101B8800BDE80840034A7920FFF7ECBFC51A0008F2
:101B9800051C0008E11B0008F8B514460E4600F0C5
:101BA80083F90C4F651EC4F1010463199E4204DCDD
:101BB800BDE8F8400A2000F077B915F8013F1B0985
:101BC800F85C00F071F92B7803F00F03F85C00F073
:101BD8006BF9EAE7602C000807B5074B0DF107021F
:101BE8001B688DF8073001217220FFF7D5FF002010
:101BF80003B05DF804FB00BFC400002070B5124CB0
:101C080021688CB0CDB20020C3B2AB4200F1010014
:101C180009DB01EB41016A46C9B27220FFF7BCFF3C
:101C280000200CB070BD03EB4302303204EB031309
:101C38006A441E7902F8306C9E681B7C02F82F6C8F
:101C480002F82E3CE0E700BFC40000202DE9F04177
:101C58002F4DADF5427D00F00DF92A46002352F8CC
:101C6800041B994204DC07D10DF5427DBDE8F081E3
:101C78001C01A45C84423ED105EB03141E01237CA5
:101C8800DB0714D500238DF8083000F0F3F88DF841
:101C9800080100F0EFF802AA8DF8090142A9012015
:101CA800FFF70EFF0028DFD19DF80830A36042AF90
:101CB800002405EB0608D8F80830B4EB430F1CD312
:101CC80000F0D8F80A2801D00D28CDD1354402AA51
:101CD800AC6842A92046FFF7F3FE0028C4D1E1B260
:101CE800EB6802A8984701AA8DF8040001217A2020
:101CF800FFF752FFB8E70133B3E700F0BBF80A2853
:101D0800B2D00D28B0D007F8010B0134D3E700BFDB
:101D1800C400002070B596B0002403264FF4A02319
:101D28000CA80125CDE90C631094149400F0E0F898
:101D38000F23214602A8CDE90235CDE904440694D3
:101D480000F044FB114B5A6942F400225A615B6966
:101D5800CDE9094603F400230D4C0193019B07A923
:101D68004FF4C0432046CDE9073500F0D5FB2A469D
:101D780020464FF4005100F093FC2A464FF480416E
:101D8800204600F08DFC16B070BD00BF0010024068
:101D98000008004810B54FF4C06288B00223CDE9AE
:101DA800032301210323CDE90513164C07230793C9
:101DB800636943F400336361636903F40033019397
:101DC80003A94FF09040019B00F0A6FB0E48DFF8F6
:101DD8003CC04FF41643C0E900C30023C0E90233F6
:101DE800036183610C234361A36943F48043A361C6
:101DF800A36903F480430293029B00F0A5FD08B099
:101E080010BD00BF00100240C8010020003801408A
:101E1800104B30B55A6942F400325A615B6987B099
:101E280003F400330093009B4FF480540123CDE961
:101E380001430025032301A94FF09040CDE9035346
:101E480000F06AFB2A4621464FF0904000F028FC3B
:101E580007B030BD0010024001224FF480514FF00E
:101E6800904000F01DBC00224FF480514FF090408C
:101E780000F016BC37B50A4D0A4C41F288330122EE
:101E88000DF10701284600F0E0FD18B99DF807009C
:101E980003B030BD236A43F008032362EDE700BFB7
:101EA800C80100200038014007B541F288338DF899
:101EB800070001220DF10701024800F070FD03B090
:101EC8005DF804FBC801002028B1002203484FF444
:101ED800005100F0E5BB0122F8E700BF0008004808
:101EE800024B1868421C1A60704700BF3802002075
:101EF80003682DE9F341D907044611D423689A07EA
:101F080000F1868023681E0700F1F48023685D07CE
:101F180000F14081E269002A40F0CB81002021E0F5
:101F28009A494B6803F00C03042B07D04B6803F065
:101F38000C03082B19D14B68DB0316D54FF400337B
:101F480093FAA3F2096893FAA3F3B3FA83F303F0BD
:101F58001F03012202FA03F30B42CFD06368002B60
:101F6800CCD1012002B0BDE8F0816268B2F5803FB3
:101F780024D10B6843F480330B60CB6AA06823F04C
:101F88000F030343CB624AB3FFF7AAFF4FF40036AF
:101F98000546012796FAA6F30A6896FAA6F3B3FA55
:101FA80083F303F01F0307FA03F31342A6D1FFF7E5
:101FB80097FF401B6428EDD90320D3E70B6832B99B
:101FC80023F480330B600B6823F48023D4E7B2F545
:101FD800A02FF5D143F480230B60CAE7FFF780FFF9
:101FE8004FF400360546012796FAA6F30A6896FAD2
:101FF800A6F3B3FA83F303F01F0307FA03F31342BC
:102008003FF47CAFFFF76CFF401B6428ECD9D3E7A3
:102018005E494B6813F00C0F07D04B6803F00C03B4
:10202800082B21D14B68DF031ED4022393FAA3F2B5
:10203800086893FAA3F3B3FA83F303F01F030122AA
:1020480002FA03F3034202D02369934289D1086854
:10205800F82393FAA3F3B3FA83F26369934020F069
:10206800F80213430B604DE72269012502B395FA84
:10207800A5F3B3FA83F303F1845303F584139B00A8
:1020880002271D60FFF72CFF064697FAA7F30A6898
:1020980097FAA7F3B3FA83F303F01F0305FA03F3E0
:1020A8001342D4D1FFF71CFF801B0228EDD983E728
:1020B80095FAA5F3B3FA83F303F1845303F5841374
:1020C8009B0002271A60FFF70BFF064697FAA7F353
:1020D8000A6897FAA7F3B3FA83F303F01F0305FA24
:1020E80003F313423FF40EAFFFF7FAFE801B0228FA
:1020F800ECD961E7A269254D2548012112B391FA6F
:10210800A1F3B3FA83F303449B0002261960FFF797
:10211800E7FE074696FAA6F396FAA6F396FAA6F30A
:102128006A6A96FAA6F3B3FA83F303F01F0301FA77
:1021380003F313427FF4EAAEFFF7D2FEC01B022876
:10214800E8D939E791FAA1F3B3FA83F303449B0082
:1021580002261A60FFF7C4FE074696FAA6F396FA17
:10216800A6F396FAA6F36A6A96FAA6F3B3FA83F385
:1021780003F01F0301FA03F313423FF4C7AEFFF75E
:10218800AFFEC01B0228E8D916E700BF00100240C6
:10219800208190108A49CB69D80033D4CB6943F0A9
:1021A8008053CB61CB6903F080530193019B0125D8
:1021B800844E3368DA0527D5E368012B34D10B6ADE
:1021C80043F001030B62FFF78BFE022607464FF030
:1021D800010896FAA6F396FAA6F3002B61D00A6ACC
:1021E80096FAA6F3B3FA83F303F01F0308FA03F38E
:1021F80013424ED0002D3FF48DAECB6923F08053AF
:10220800CB6187E60025D3E7336843F480733360F6
:10221800FFF766FE07463368DB05CDD4FFF760FE9F
:10222800C01B6428F7D9C7E62BBB0B6A23F0010350
:102238000B620B6A23F004030B62FFF751FE0226C0
:1022480007464FF0010896FAA6F396FAA6F363B389
:102258000A6A96FAA6F3B3FA83F303F01F0308FA9F
:1022680003F31342C6D0FFF73BFE41F28833C01B8D
:102278009842E8D9A0E6052B0B6A03D143F0040382
:102288000B629CE723F001030B620B6A23F0040343
:1022980098E7FFF725FE41F28833C01B984298D98A
:1022A8008AE696FAA6F34A6A9AE796FAA6F34A6A7B
:1022B800CFE743494B6803F00C03082B3FF451AEBA
:1022C800022A4FF0807354D193FAA3F3B3FA83F33D
:1022D80003F1845303F584139B0000221A60FFF76F
:1022E800FFFDDFF8E48006464FF00077012597FAF6
:1022F800A7F30A6897FAA7F3B3FA83F303F01F0367
:1023080005FA03F313422ED1D4E908034A680343BC
:1023180022F4741213434B604FF0807393FAA3F3C3
:10232800B3FA83F303F1845303F584139B00264F18
:102338001D60FFF7D5FD4FF000750446012695FA9C
:10234800A5F30A6895FAA5F3B3FA83F303F01F031C
:1023580006FA03F313427FF4E1ADFFF7C1FD001B5A
:10236800B842ECD928E6FFF7BBFD801B4045BED933
:1023780022E693FAA3F3B3FA83F303F1845303F544
:1023880084139B0000221A60FFF7AAFD0E4F044633
:102398004FF00075012695FAA5F30A6895FAA5F39A
:1023A800B3FA83F303F01F0306FA03F313423FF46F
:1023B800B5ADFFF795FD001BB842ECD9FCE500BFB1
:1023C8000010024000700040400D0300504AF8B56C
:1023D800136803F007038B4204461BD32268900757
:1023E80024D4D2072AD44A4A136803F007038B423D
:1023F8007AD82068430700F1828010F0080014D0D2
:10240800444A2169536823F4605343EAC103536083
:1024180000200AE0136823F007030B4313601368D6
:1024280003F007038B42D9D00120F8BD3948A568CD
:10243800436823F0F0032B434360D2E76268354DCD
:10244800012A27D14FF4003393FAA3F0286893FAAE
:10245800A3F3B3FA83F303F01F0302FA03F303426F
:10246800E2D06B6823F003031A436A60FFF738FD74
:102478006368012B064641F288371ED16B6803F06A
:102488000C03042BAFD0FFF72BFD801BB842F5D906
:102498000320CAE7022A0CBF4FF00073022393FA05
:1024A800A3F02E6893FAA3F3B3FA83F303F01F03A0
:1024B800012000FA03F33342D2E7022B0FD16B68F5
:1024C80003F00C03082B8ED0FFF70AFD801BB842DF
:1024D800F5D9DDE7FFF704FD801BB842D8D86B6853
:1024E80013F00C0FF6D17EE7136823F007030B43B4
:1024F8001360136803F007038B4295D179E7054908
:10250800E3684A6822F4E0621A434A6075E700BF4C
:1025180000200240001002402DE9F74FDFF87481D7
:102528005D4C00234FF001090A6832FA03F502D125
:1025380003B0BDE8F08F09FA03FA1AEA020200F0C4
:102548009E804D6825F0100EBEF1020F14D14FEA9F
:10255800D30C00EB8C0C03F0070BDCF820604FEA7F
:102568008B0B0F2707FA0BF726EA07070E6906FAFF
:102578000BF63E43CCF82060D0F800B04FEA430C8D
:10258800032606FA0CF72BEA070BFE4305F00307B0
:1025980007FA0CF70EF1FF3E47EA0B07BEF1010FF1
:1025A800076011D8876806EA070ECF6807FA0CF7A4
:1025B80047EA0E078760476827EA0A0AC5F3001743
:1025C8009F4047EA0A074760C76837408E6806FA9F
:1025D8000CF63E43C660EE0051D5D8F8186046F0B8
:1025E8000106C8F81860D8F8186023F0030707F147
:1025F800804706F0010607F58037019603F0030EC1
:10260800019EBE684FEA8E0E4FF00F0C0CFA0EFCBE
:10261800B0F1904F26EA0C0C33D0204EB04232D0A5
:1026280006F58066B04230D006F58066B0422ED0FE
:1026380006F58066B0420CBF0426052606FA0EF69B
:1026480046EA0C06BE602668D74315F4803F0CBFE7
:102658003E4016432660666815F4003F0CBF3E40B6
:1026680016436660A66815F4801F0CBF3E401643EB
:10267800A660E668AD0254BF3E401643E6600133EB
:1026880052E70026DAE70126D8E70226D6E703262E
:10269800D4E700BF001002400004014000040048D5
:1026A8000AB18161704781627047000002688168E1
:1026B800C36930B5056914682943456924F416448B
:1026C800294324F00C041943214311605168C4685C
:1026D800056A21F44051214351609468816924F4CA
:1026E800306429432143916062498A4216D101F539
:1026F8005841096B01F003010139022900F2B28047
:102708005D4CB3F5004F615C77D1082972D8DFE8DA
:1027180001F0ACAC2471AC717171A40057498A42C4
:102728002CD101F5E631096B01F44031B1F5003FD8
:1027380000F090800BD8002900F09480B1F5803F1C
:1027480000F09080B3F5004F54D0012015E0B1F5AA
:10275800403FF7D1B3F5004F66D141684B0803F10C
:10276800F47303F59043B3FBF1F300209BB223F01D
:102778000F01C3F342030B43D36030BD40498A4283
:1027880010D101F5E431096B01F44021B1F5002FB6
:1027980060D004D8002965D0B1F5802FD0E7B1F515
:1027A800402FD6E737498A4210D101F5E231096B4B
:1027B80001F44011B1F5001F4CD004D8002951D0C4
:1027C800B1F5801FBCE7B1F5401FC2E72E498A4228
:1027D800B8D101F5E031096B01F44001B1F5000F02
:1027E80038D004D800293DD0B1F5800FA8E7B1F55D
:1027F800400FAEE701200023B9E70829A5D801A3B7
:1028080053F821F049280008492800083128000811
:1028180053270008492800085327000853270008B1
:10282800532700085328000841684B0803F5740330
:1028380003F51053B3FBF1F39BB2D36000209CE780
:1028480041684B0803F5E103F4E741684B0803F5D9
:102858000043EFE7B3F5004FF7D141684B0803F5A4
:10286800803380E7B3F5004FEAD141684B0803F5A0
:10287800610378E700380140702C000800440040EC
:1028880000480040004C004000500040F8B5069F4A
:10289800044615461E462268D36931EA03030CBF75
:1028A80001230023AB4201D0002014E07B1CF3D0AD
:1028B80097B923681A6822F4D0721A609A6822F0CD
:1028C80001029A60202384F8693084F86A30002372
:1028D80084F868300320F8BDFFF702FB801BB8427C
:1028E800D9D9E6E737B504460021C166FFF7F8FAFB
:1028F80023681B681A07054617D423681B685B07FB
:102908000AD56FF07E43009300222B464FF48001D6
:102918002046FFF7BBFFA0B92023002084F86930C8
:1029280084F8680084F86A300CE06FF07E43009306
:102938000A4603464FF400112046FFF7A7FF002878
:10294800DBD0032003B030BD10B5044628B390F89F
:10295800693003F0FF020BB980F86820226824234D
:1029680084F86930136823F0010313602046FFF7E9
:102978009DFE012811D023685A6822F490425A60BB
:102988009A6822F02A029A601A6842F001022046E8
:102998001A60BDE81040FFF7A5BF012010BDF7B5CC
:1029A8001E4690F86930202B0D46044611464AD140
:1029B800002D46D0002A44D090F86830012B42D030
:1029C800012380F868300023C366212380F869302A
:1029D800FFF786FAA4F850100746A4F85210B4F886
:1029E800522092B262B900963B4640212046FFF73A
:1029F8004DFF98B9202384F8693084F868000EE008
:102A0800B4F852200096013A92B2A4F852203B46FC
:102A1800002280212046FFF739FF10B1032003B0C0
:102A2800F0BDA3682268B3F5805F07D123692BB98D
:102A380035F8023BC3F308031385D0E715F8013BCB
:102A4800FAE70120EBE70220E9E72DE9F3411E460A
:102A580090F86A30202B0D46044611465CD1002DB3
:102A680058D0002A56D090F86830012B54D0012352
:102A780080F8683003684FF0FF321A620023C3669B
:102A8800222380F86A30FFF72BFAA368A4F85810BD
:102A9800B3F5805F8046A4F85A1015D123698BB925
:102AA80040F2FF13A4F85C30B4F85C70B4F85A0034
:102AB80080B280B9202384F86A3084F8680002B0B4
:102AC800BDE8F081FF23EDE7002BEDD12369002B52
:102AD800F8D07F23E6E7B4F85A200096013A92B27C
:102AE800A4F85A204346002220212046FFF7CEFEB4
:102AF800A0B9A2682368B2F5805F06D1226922B91D
:102B08009B8C3B4025F8023BD0E79B8C3B4005F86B
:102B1800013BCBE70120D2E70220D0E70320CEE734
:102B2800002103E00B4B5B58435004310A480B4B20
:102B380042189A42F6D30A4A02E00023136004328C
:102B4800084B9A42F9D3AFF30080FDF75DFBFEF71F
:102B580043FFFEE7C82C000800000020000000200A
:102B68000000002040020020FEE70000F8B500BF8A
:102B7800F8BC08BC9E467047F8B500BFF8BC08BC56
:042B88009E467047AE
:102B8C0008200001FFFFFFFFFFFFFFFFFFFFFFFF1C
:102B9C000000000000000000000000000100000028
:102BAC00FFFFFFFF512563FCC2CAB9F3849E17A730
:102BBC00ADFAE6BCFFFFFFFFFFFFFFFF00000000C8
:102BCC00FFFFFFFF96C298D84539A1F4A033EB2D37
:102BDC00817D0377F240A463E5E6BCF847422CE123
:102BEC00F2D1176BF551BF376840B6CBCE5E316B67
:102BFC005733CE2B169E0F7C4AEBE78E9B7F1AFE2B
:102C0C00E242E34F4B60D2273E3CCE3BF6B053CC76
:102C1C00B0061D65BC86987655BDEBB3E7933AAA12
:102C2C00D835C65AAB0E0008370E0008D90D00086F
:102C3C00B1090008FCFFFFFFFFFFFFFFFFFFFFFFD5
:102C4C000000000000000000000000000100000077
:102C5C00FFFFFFFF303132333435363738394142DC
:102C6C0043444546040802436869705768697370A9
:102C7C00657265722073696D706C657365726961DC
:102C8C006C2D74726163652D6563632C20636F6DAD
:102C9C0070696C656420004F6374203135203230CC
:102CAC003234002C200032303A30353A3535000AB7
:042CBC000000000014
:042CC000F101000816
:042CC400C90100083A
:0400000508002B299B
:00000001FF
